:02000004100AE0
:4010000000780408F9120A100D00000061130A1061130A1061130A1061130A10000000000000000000000000000000005D130A105D130A10000000005D130A105D130A109A
:401040005D130A105D130A105D130A105D130A105D130A105D130A105D130A105D130A105D130A105D130A105D130A105D130A105D130A105D130A105D130A105D130A10D0
:401080005D130A105D130A105D130A105D130A105D130A105D130A105D130A105D130A105D130A105D130A105D130A105D130A105D130A105D130A105D130A105D130A1090
:4010C0005D130A105D130A105D130A105D130A105D130A105D130A105D130A105D130A105D130A105D130A105D130A105D130A105D130A105D130A105D130A105D130A1050
:401100005D130A105D130A105D130A105D130A105D130A105D130A105D130A105D130A105D130A105D130A105D130A105D130A105D130A105D130A105D130A105D130A100F
:401140005D130A105D130A105D130A105D130A105D130A105D130A105D130A105D130A105D130A105D130A105D130A105D130A105D130A105D130A105D130A105D130A10CF
:401180005D130A105D130A105D130A105D130A105D130A105D130A105D130A105D130A105D130A105D130A105D130A105D130A105D130A105D130A105D130A105D130A108F
:4011C0005D130A105D130A105D130A105D130A105D130A105D130A105D130A105D130A105D130A105D130A105D130A105D130A105D130A105D130A105D130A105D130A104F
:401200005D130A105D130A105D130A105D130A105D130A105D130A105D130A105D130A105D130A105D130A105D130A105D130A105D130A105D130A105D130A105D130A100E
:401240005D130A105D130A105D130A105D130A105D130A105D130A105D130A105D130A105D130A105D130A105D130A105D130A105D130A105D130A105D130A105D130A10CE
:401280005D130A105D130A105D130A1010B5054C237833B9044B13B10448AFF300800123237010BD9C47020800000000FC1C0A10084B10B51BB108490848AFF300800848D8
:4012C000036803B910BD074B002BFBD0BDE81040184700BF00000000A0470208FC1C0A10B4420208000000007047EFF3108072B6704780F310887047FFF7F6FF72B6114C42
:40130000114DAC4209DA21686268A368043BA2BFC858D050FAE70C34F3E70C490C4A00209142BCBF41F8040BFAE70A480A490860BFF34F8F00F00EF900F0E8F800F01EF899
:40134000FEE70000001D0A10181D0A109C470208684902080040020808ED00E0FEE7FEE700B504207146084202D0EFF3098001E0EFF30880043000F093FBFEE762B6FEE77B
:40138000704700BF5A4AD2F8803303F00F0303F1D00152F8212012F0070202D0042A02D00FE0544911E003F1C002514951F8222002F01F02112A06D0132A04D04FF4FA4159
:4013C00003E04D4901E04FF400418BBB484BD3F8902502F00100D3F88825C2F30172D3F8883513F0405F07D0414BD3F88835C3F30173012B02D102E0012300E0002303B128
:4014000008B9032A46D13A48D0F88025C2F31103D0F88425C2F30C02D0F88005C0F300600130B1FBF2F202FB03F2B2FBF0F131E0012B2FD12E4BD3F8402602F00100D3F875
:401440000026C2F30172D3F8003613F0405F07D0274BD3F80036C3F30173012B02D102E0012300E0002303B108B9032A12D12048D0F8002602F07F02D0F80036C3F30423D6
:40148000D0F80006C0F3044002FB01F2B2FBF3F2B2FBF0F1164BD3F88033C3F3011321FA03F216490A601648D0F89030C3F3072301330069000E0130B2FBF0F04860B2FB51
:4014C000F3F38B60CB6003F5742202F23F220D48A0FB0202C2F387420A7403F2E7330A4AA2FB03239B094B61DB038B61704700BF0000264000127A0000366E018C420208F8
:401500000000214083DE1B43D34D621008B5104BD3F8802122F0404242F08042C3F88021D3F8802142F00042C3F88021D3F8802122F00102C3F88021FFF722FFFFF722FF4A
:4015400000F01CF800F022F800F072FA08BD00BF0000264008B5FFF7C8FE074AD2F8883043F47003C2F88830BFF34F8FBFF36F8FFFF7BFFE08BD00BF00ED00E008B500228C
:401580001146042000F0A0F808BD00BF08B5024800F056F908BD00BFB847020838B50C4B9A680C4B9A420ED10D46044619B9FC21094800F065FA04F11003064A52F8230088
:4015C00042F8235038BD1030044B53F8200038BD00ED00E000400208B81B0A1000100A1070B338B504460D464368072B03D93621154800F045FAB4F900306268002B08DB2E
:401600005201D2B203F1604303F5614383F8002305E003F00F035201D2B20C49CA540C4B9A680C4B9A420DD11DB94521064800F027FA2946B4F90000FFF7B0FF002038BDF3
:4016400005487047002038BDB81B0A1014ED00E000ED00E0004002080100560038B50369002B0DDA0D4604460B0C1B0423B140F2A721044800F004FAA9B26160002038BD9E
:40168000014838BDFC1B0A1001008A0038B50368002B01DA002300E0094B73B90D460446C2600B0C1B0423B140F28E21054800F0E7F9A9B2A160002038BD014838BD00BF1A
:4016C00001008A00FC1B0A100F2840D8F8B515460E46044682B979B90F2804D940F29D11214800F0CDF9600100F1804000F50C101E4B18600020F8BD5DB366B316F01F0F83
:401700002BD10F2C04D940F29D11174800F0B8F9640104F1804404F50C14144F3C607E60BD60F2080021284600F01EFA00212046FFF794FF3A4652F8040B0021FFF7A6FF4E
:4017400068B900213868FFF789FF50B9F8BD084870470748F8BD0648F8BD0548F8BD0548F8BD0448F8BD00BF7C1C0A101849020803018A0001018A002DE9F0411B4B1B6812
:40178000DC68236883422CD90D464609A0EB4610012303FA00F819B900F0DFF9074600E00027124B18680368002B01DA002300E00F4B83B9626852F8263018EA030F05D0CC
:4017C00023EA080342F82630002400E0094C0021FFF744FF00E0084C25B9384600F0C1F900E0064C2046BDE8F08100BF1849020801008A00020188000301880004018A004B
:401800000B4B1B68DB681A6882420CD94109A0EB4110012202FA00F05B6853F82130184203D004487047044870470448704700BF184902080101880004018A0000018800CB
:40184000024B1B680BB9014B1860704724490208F8B507460E461D4614461AB9FC21224800F00EF9072F03D9FD211F4800F008F9072E03D9FE211C4800F002F91B4B1B6896
:401880002C2202FB073002FB06367368012202FA03F31B04476802FA07F70269EAB1B169E9B91268002A01DA002200E0104AC2B92288134323600369DC600123B361756263
:4018C00004693B0C1B0423B140F28E21094800F0D7F8BAB2A2600020F8BD0748F8BD0748F8BD0648F8BD00BFBC1C0A102449020801008A007C1C0A1004028A0007028A007A
:4019000070B504460E461546072804D940F25F11084800F0B5F8084B1B682C2202FB0434E369AB4204D9236A43F82560002070BD024870BDBC1C0A10244902080A028A006F
:401940001F4B98422DD00CD840282ED003D8E8B1102828D02FE0802829D0B0F5807F28D029E0184B984228D006D8B0F1204F0DD0154B984212D01EE0144B98420AD0013382
:40198000984209D0023B984215D101E0002070470F4870470F4870470F4870474FF4A0007047074870470D4870470D4870470D487047034870470C4870474FF4A400704726
:4019C00006005200010000F0090000A0040000F0010052000200520003005200010050000200500005005200FF00520008B50C4B1B69002B12DB0B4B1868FFF7A1FF01227B
:401A0000094BC3F88C24084BD3F80C34002BFAD1054BD3F88C34002BF5D108BD034808BD2000234028490208000025400200500000B583B05523ADF80030002301930C49FC
:401A40006846FFF7CDFDBDF90030002B08DB590903F01F03012202FA03F3064A42F82130022205490120FFF74BFF03B05DF804FBF942020800E100E01944020801BEFEE7B2
:401A800038B50D46044C18220146204600F074F8A5610020FFF7F2FF08470208FEE700BF08B50268254BDA6142681A6282685A62C2689A620269DA6242691A6382695A630E
:401AC000C2699A631E4A916AD963D16A1964516A5964516B9964926BDA64F1EE103A13F0900F27D0026A154B1A65426A5A65826A9A65C26ADA65026B1A66426B5A66826BE6
:401B00009A66C26BDA66026C1A67426C5A67826C9A67C26CDA67026DC3F88020426DC3F88420826DC3F88820C26DC3F88C20026EC3F89020FFF7B2FF08BD00BF084702085D
:401B400000ED00E0000000000230800803D001300238FCD100BF00BF7047EFF3108072B6704780F31088704702440346934202D003F8011BFAE7704710B5034642B111F89C
:401B8000014B03F8014B013A002CF7D11A4400E010BD934202D003F8014BFAE710BD0000F8B500BFF8BC08BC9E467047F8B500BFF8BC08BC9E46704747656E657261746593
:401BC000645F536F757263655C50536F43365C70646C5C647269766572735C7065726970686572616C5C737973696E745C63795F737973696E742E630000000047656E65F4
:401C000072617465645F536F757263655C50536F43365C70646C5C647269766572735C7065726970686572616C5C6970635C63795F6970635F6472762E68000047656E6533
:401C400072617465645F536F757263655C50536F43365C70646C5C647269766572735C7065726970686572616C5C6970635C63795F6970635F6472762E63000047656E65F8
:401C800072617465645F536F757263655C50536F43365C70646C5C647269766572732F7065726970686572616C2F6970632F63795F6970635F6472762E68000047656E653A
:401CC00072617465645F536F757263655C50536F43365C70646C5C647269766572735C7065726970686572616C5C6970635C63795F6970635F706970652E63000000000095
:401D000000100A10004002088C020000201D0A108C4202087C0400009C470208CC01000000127A0000093D0000127A0000127A0008000000401F00000000A00F02FF000037
:401D4000B1120A108D120A100000000080B2C300B0B13E210B4A116041F61E7104321160A2F584720621C2F8181523F07F43C2F81C35D2F81C35044BD3F81C35002BFADAE5
:401D8000704700BF040126400000264008B54FF26003404AD3589BB2A2F580229268013B032B76D8DFE803F0021F3C59032A02D10822394B9A60394A13691069C0F3072222
:401DC0001B0E581C02FB0000354B03FB00F0354B1B68354AA2FB03239B09B0FBF3F08230FFF7B4FF08BD032A02D108222A4B9A602A4A13691069C0F307221B0E581C02FBCC
:401E00000000274B03FB00F0264B1B68264AA2FB03239B09B0FBF3F08230FFF797FF08BD032A02D108221C4B9A601C4A13691069C0F307221B0E581C02FB0000184B03FB29
:401E400000F0184B1B68184AA2FB03239B09B0FBF3F08230FFF77AFF08BD032A02D108220D4B9A600D4A13691069C0F307221B0E581C02FB00000A4B03FB00F0094B1B68F7
:401E8000094AA2FB03239B09B0FBF3F08230FFF75DFF08BD00002540A00023400000214040420F008C420208D34D621008B54378FF2B0ED100F06AF9064BDB685A681368A8
:401EC00043F001031360136813F0010FFBD100F03DF908BD80002340F8B505460E46264B1B69002B1FDB002000F038F9234B98421BD00023224A0121184600F017F918B15E
:401F0000204C15E0013400E00024002000F026F91A4B984202D01C4B9C42F3D91A4B9C4205D9184C04E0174C02E0164C00E0002404BB00F02BF90746144A0121144800F0B6
:401F400015F968B925B93046FFF700FF114C08E00F4B1B69002BFBDB00F0F0F8044600E0084C0121002000F009F90028F9D1384600F0ECF82046F8BDA0002340010188004F
:401F8000A842020805005200EF490200284902082000234001005000394B1B68002BFBDA30B4374BDA6842F00102DA60DB6813F0020F20D0324DEB689CB232490A69120ABE
:401FC000120402F47F02D1F890301B0A42EA03632343EB600B6923F47F4343F410630B61D1F8903023F47F4343F41063C1F890300B69D1F89030224B00225A605B68224A06
:40200000136943F004031361012801D030BF07E020BF1E4B1B7803B120BF01221B4B1A70184BD3F8803003F00303022BE7D0144B1B68002BFBDA124BDB6813F0020F15D0EF
:4020400010490B6923F47F420D48C3681B0C1B0203F47F4313430B61D1F8903023F47F42C3681B0E42EA0323C1F89030044BDA6822F00102DA6000225A6030BC704700BFDE
:40208000E00023400000214000ED00E0384902081E4A136943F004031361012801D030BF07E020BF1A4B1B7803B120BF0122184B1A70184BD3F8803003F00303022BE7D08D
:4020C000154B1B68002BFBDA144BD3F80C31C3B941F61E72124B1A60062203F582631A603E22A3F214431A60442203F583631A600C4B1B68002BFBDA4FF0AA32074BC3F877
:402100000C210022044B5A60704700BF00ED00E03849020800002140E000234000002540080126401C0526400000000001B40248844601BC604700BF51180A1001B402480C
:40214000844601BC604700BFED190A1001B40248844601BC604700BF631B0A1001B40248844601BC604700BF01180A1001B40248844601BC604700BF8D160A1001B4024807
:40218000844601BC604700BF79170A1001B40248844601BC604700BF5B1B0A100000000000000000000000000000000000000000000000000000000000000000000000000C
:4021C00000000000000000000000000000000000000000000000000000000000000000000000000000000000000000000000000000000000000000000000000000000000DF
:0200000490303A
:02000000D1121B
:0200000490501A
:0C0000000005E20621002101E20BF212D3
:00000001FF